:100000000C945C000C9479000C9479000C947900A9
:100010000C9479000C9479000C9479000C9479007C
:100020000C9479000C9479000C9479000C9479006C
:100030000C9479000C9479000C9479000C9479005C
:100040000C94AD010C9479000C9479000C94790017
:100050000C9479000C9479000C9479000C9479003C
:100060000C9479000C947900000000080002010053
:100070000003040700000000000000000102040863
:100080001020408001020408102001020408102002
:10009000040404040404040402020202020203032E
:1000A0000303030300000000250028002B000000CC
:1000B0000000240027002A0011241FBECFEFD8E043
:1000C000DEBFCDBF11E0A0E0B1E0EAE0F6E002C0A3
:1000D00005900D92A232B107D9F721E0A2E2B1E07A
:1000E00001C01D92AD37B207E1F70E94F4020C94F3
:1000F00003030C9400000F931F93CF93DF93C1E091
:10010000D1E001E111E08881229661E00E94840241
:10011000F80180810E5F1F4F61E00E948402F1E0D0
:10012000C131DF0781F7DF91CF911F910F910895C2
:10013000CF92DF92EF92FF920F931F93CF93DF93B3
:100140006B017C018091700190917101A09172010D
:10015000B0917301C816D906EA06FB0608F450C030
:10016000E0916E01F0916F01EE0FFF1FEF5EFE4F09
:1001700060E080810E94BD0280916E0190916F01CC
:100180000196883091052CF490936F0180936E0155
:1001900004C010926F0110926E0101E011E0C0E006
:1001A000D0E0F80180810E5F1F4FFE0193E0EE0F5B
:1001B000FF1F9A95E1F720916E0130916F01E20FD8
:1001C000F31FE25DFE4F60810E94BD022196C830A0
:1001D000D10539F7E0916E01F0916F01EE0FFF1F2D
:1001E000EF5EFE4F61E080810E94BD02C09270010F
:1001F000D0927101E0927201F092730181E001C02E
:1002000080E0DF91CF911F910F91FF90EF90DF90F1
:10021000CF900895CF92DF92EF92FF92CF93DF932A
:100220006B017C0180912A0190912B01A0912C01FE
:10023000B0912D01C816D906EA06FB0638F183E114
:100240000E943E02880F892F881F990BC7E0D0E0DB
:100250009E01281B390B309329012093280182E14C
:100260000E943E02880F892F881F990BC81BD90B4B
:10027000D0932701C0932601C0922A01D0922B016E
:10028000E0922C01F0922D0181E001C080E0DF912D
:10029000CF91FF90EF90DF90CF9008950E947B0068
:1002A0002EE231E041E080E090E0F901E80FF91F33
:1002B0004083089680349105C1F72F5F3F4F81E05E
:1002C0002633380781F70895CF92DF92EF92FF929D
:1002D0000E94F7016B017C01809128019091290116
:1002E000909325018093240180912601909127010C
:1002F0009093230180932201C701B6010E940A0155
:10030000E0912401F091250153E0EE0FFF1F5A9573
:10031000E1F78091220190912301E80FF91FE25D3E
:10032000FE4F81E08083E0912801F091290163E094
:10033000EE0FFF1F6A95E1F780912601909127014A
:10034000E80FF91FE25DFE4F1082C701B601FF9072
:10035000EF90DF90CF900C9498001F920F920FB601
:100360000F9211242F933F938F939F93AF93BF933B
:100370008091750190917601A0917701B0917801FB
:100380003091740123E0230F2D3720F40196A11D35
:10039000B11D05C026E8230F0296A11DB11D2093B3
:1003A00074018093750190937601A0937701B093C7
:1003B00078018091790190917A01A0917B01B091AF
:1003C0007C010196A11DB11D8093790190937A0162
:1003D000A0937B01B0937C01BF91AF919F918F91CE
:1003E0003F912F910F900FBE0F901F9018952FB730
:1003F000F8946091750170917601809177019091E8
:1004000078012FBF0895789484B5826084BD84B547
:10041000816084BD85B5826085BD85B5816085BDFF
:10042000EEE6F0E0808181608083E1E8F0E0108218
:10043000808182608083808181608083E0E8F0E059
:10044000808181608083E1EBF0E080818460808343
:10045000E0EBF0E0808181608083EAE7F0E080817A
:1004600084608083808182608083808181608083DA
:100470008081806880831092C10008958E3008F0DA
:100480008E5087702091000190E4299F90011124E3
:10049000822B80937C0080917A00806480937A0024
:1004A00080917A0086FDFCCF8091780020917900C0
:1004B00090E0922B0895833081F028F4813099F0F8
:1004C0008230A1F008958730A9F08830B9F08430E7
:1004D000D1F4809180008F7D03C0809180008F7760
:1004E00080938000089584B58F7702C084B58F7D96
:1004F00084BD08958091B0008F7703C08091B000D3
:100500008F7D8093B0000895CF93DF9390E0FC013E
:10051000E458FF4F2491FC01E057FF4F849188235A
:1005200049F190E0880F991FFC01E255FF4FA5911A
:10053000B4918C559F4FFC01C591D4919FB7611127
:1005400008C0F8948C91209582238C938881822313
:100550000AC0623051F4F8948C91322F3095832385
:100560008C938881822B888304C0F8948C91822B91
:100570008C939FBFDF91CF9108950F931F93CF93DB
:10058000DF931F92CDB7DEB7282F30E0F901E8598D
:10059000FF4F8491F901E458FF4F1491F901E0579E
:1005A000FF4F04910023C9F0882321F069830E9442
:1005B0005B026981E02FF0E0EE0FFF1FEC55FF4F6B
:1005C000A591B4919FB7F8948C91611103C01095D7
:1005D000812301C0812B8C939FBF0F90DF91CF911E
:1005E0001F910F91089508950E9403020E94F30243
:1005F0000E944E01C0E0D0E00E9464012097E1F328
:0A0600000E940000F9CFF894FFCF2C
:10060A000106000700080009000A000B000C000D93
:10061A00000E000F00100011000200030004000584
:02062A000000CE
:00000001FF
