:020000020000FC
:100000000C94030000000FEF07B90FEF0AB90FEFD0
:1000100004B9D1E0C0E014E7188314E6198314E5AD
:100020001A8314E41B8384E000E610917C00012B0A
:1000300000937C0007E810917A00012B00937A006E
:1000400060E00E9425000C9469001881212F206F28
:1000500020300C94450021300C94480022300C9440
:100060004B0023300C944E0024300C94510025306A
:100070000C94540026300C94570027300C945A00EE
:10008000CF5F0C942500C0E0089531E00C945D0032
:1000900032E00C945D0034E00C945D0038E00C9488
:1000A0005D0030E10C945D0030E20C945D0030E4C2
:1000B0000C945D0030E80C945D00C0E0412F4F606F
:1000C000CF5F4A95411514F00C94600038830C946E
:1000D0004300188100E0103820F0A0E4A1950A1B2D
:1000E0001058103420F0A0E8A1950A1B10541032CB
:1000F00020F0A1E0A1950A1B1052103120F0A2E0DF
:10010000A1950A1B1051183020F0A4E0A1950A1BFC
:100110001850143020F0A8E0A1950A1B145012309A
:1001200020F0A0E1A1950A1B1250113020F0A0E2AE
:10013000A1950A1B115011E018B9102F107C1BB9A2
:10014000102F1F7315B90E944802198100E0103862
:1001500020F0A0E4A1950A1B1058103420F0A0E86C
:10016000A1950A1B1054103220F0A1E0A1950A1BA2
:100170001052103120F0A2E0A1950A1B1051183046
:1001800020F0A4E0A1950A1B1850143020F0A8E03C
:10019000A1950A1B1450123020F0A0E1A1950A1B72
:1001A0001250113020F0A0E2A1950A1B115012E06C
:1001B00018B9102F107C1BB9102F1F7315B90E948E
:1001C00048021A8100E0103820F0A0E4A1950A1B33
:1001D0001058103420F0A0E8A1950A1B10541032DA
:1001E00020F0A1E0A1950A1B1052103120F0A2E0EE
:1001F000A1950A1B1051183020F0A4E0A1950A1B0C
:100200001850143020F0A8E0A1950A1B14501230A9
:1002100020F0A0E1A1950A1B1250113020F0A0E2BD
:10022000A1950A1B115014E018B9102F107C1BB9AE
:10023000102F1F7315B90E9448021B8100E010386F
:1002400020F0A0E4A1950A1B1058103420F0A0E87B
:10025000A1950A1B1054103220F0A1E0A1950A1BB1
:100260001052103120F0A2E0A1950A1B1051183055
:1002700020F0A4E0A1950A1B1850143020F0A8E04B
:10028000A1950A1B1450123020F0A0E1A1950A1B81
:100290001250113020F0A0E2A1950A1B115018E075
:1002A00018B9102F107C1BB9102F1F7315B90E949D
:1002B00048021C8100E0103820F0A0E4A1950A1B40
:1002C0001058103420F0A0E8A1950A1B10541032E9
:1002D00020F0A1E0A1950A1B1052103120F0A2E0FD
:1002E000A1950A1B1051183020F0A4E0A1950A1B1B
:1002F0001850143020F0A8E0A1950A1B14501230B9
:1003000020F0A0E1A1950A1B1250113020F0A0E2CC
:10031000A1950A1B115018B8102F107C14601BB93E
:10032000102F1F7315B90E9448021D8100E010387C
:1003300020F0A0E4A1950A1B1058103420F0A0E88A
:10034000A1950A1B1054103220F0A1E0A1950A1BC0
:100350001052103120F0A2E0A1950A1B1051183064
:1003600020F0A4E0A1950A1B1850143020F0A8E05A
:10037000A1950A1B1450123020F0A0E1A1950A1B90
:100380001250113020F0A0E2A1950A1B1150102F3D
:10039000107C18601BB9102F1F7315B90E944802FA
:1003A0001E8100E0103820F0A0E4A1950A1B10582F
:1003B000103420F0A0E8A1950A1B1054103220F050
:1003C000A1E0A1950A1B1052103120F0A2E0A195E6
:1003D0000A1B1051183020F0A4E0A1950A1B1850F8
:1003E000143020F0A8E0A1950A1B1450123020F020
:1003F000A0E1A1950A1B1250113020F0A0E2A195B6
:100400000A1B1150102F107C10611BB9102F1F7385
:1004100015B90E9448021F8100E0103820F0A0E4C6
:10042000A1950A1B1058103420F0A0E8A1950A1BD2
:100430001054103220F0A1E0A1950A1B1052103187
:1004400020F0A2E0A1950A1B1051183020F0A4E082
:10045000A1950A1B1850143020F0A8E0A1950A1BA2
:100460001450123020F0A0E1A1950A1B1250113057
:1004700020F0A0E2A1950A1B1150102F107C1062F1
:100480001BB9102F1F7315B90E9448020C9420004D
:0E0490003DE04CEF4A95F1F73A95E1F70895FB
:00000001FF
