:020000020000FC
:060000000C942300000037
:100040000C94240400000FE107B90CEF0AB90FE388
:1000500004B9F1E0E0E0D1E0C0E184E070E060E00C
:1000600091E014E4108313E4118312E4128311E489
:100070001383188219821A821B821C821D821E829F
:100080001F8210E610937C0017E810937A0018E0A6
:100090001EBF1FEF1DBF78941091250016601093AE
:1000A000450011E020916E00122B10936E0010E0BD
:1000B00020E030E040E000E050E060E00C942001FF
:1000C00000000E94670000000C94570000005130AF
:1000D00069F40E94120400000E945E0300000E9466
:1000E0007C0000000E948D00000050E00895000098
:1000F000788373950895000011918F938A958617E0
:1001000039F010813193312F63950C947F000000FA
:1001100060E08F91E0E008950000861721F1000073
:100120001191212F207F2695269526952695203002
:10013000E9F000002130F1F000002230F9F0000079
:10014000233001F10000243009F10000253011F1C5
:100150000000263019F10000273021F100006F5F08
:100160000C948D000000E0E00895000031E00C9454
:10017000D600000032E00C94D600000034E00C946D
:10018000D600000038E00C94D600000030E10C945A
:10019000D600000030E20C94D600000030E40C944D
:1001A000D600000030E80C94D6000000412F4F70BC
:1001B0004030B1F000004130C9F000004230E1F0C1
:1001C00000004330F9F00000443011F100004530E8
:1001D00029F10000463041F10000473059F100009C
:1001E0004881342B38830C94AF0000004981342BB4
:1001F00039830C94AF0000004A81342B3A830C946D
:10020000AF0000004B81342B3B830C94AF00000007
:100210004C81342B3C830C94AF0000004D81342B77
:100220003D830C94AF0000004E81342B3E830C9430
:10023000AF0000004F81342B3F830C94AF000000CF
:10024000188100E0103828F00000A0E4A1950A1BF6
:100250001058103428F00000A0E8A1950A1B105493
:10026000103228F00000A1E0A1950A1B10521031B5
:1002700028F00000A2E0A1950A1B1051183028F0C8
:100280000000A4E0A1950A1B1850143028F00000CB
:10029000A8E0A1950A1B1450123028F00000A0E13C
:1002A000A1950A1B1250113028F00000A0E2A19580
:1002B0000A1B115011E018B9102F107C1BB9102F18
:1002C0001F7315B90E941C04000030E338B91BB835
:1002D00015B8198100E0103828F00000A0E4A195BD
:1002E0000A1B1058103428F00000A0E8A1950A1B42
:1002F0001054103228F00000A1E0A1950A1B105202
:10030000103128F00000A2E0A1950A1B105118300E
:1003100028F00000A4E0A1950A1B1850143028F022
:100320000000A8E0A1950A1B1450123028F000002C
:10033000A0E1A1950A1B1250113028F00000A0E2A4
:10034000A1950A1B115012E018B9102F107C1BB98F
:10035000102F1F7315B90E941C04000038B91BB878
:1003600015B81A8100E0103828F00000A0E4A1952B
:100370000A1B1058103428F00000A0E8A1950A1BB1
:100380001054103228F00000A1E0A1950A1B105271
:10039000103128F00000A2E0A1950A1B105118307E
:1003A00028F00000A4E0A1950A1B1850143028F092
:1003B0000000A8E0A1950A1B1450123028F000009C
:1003C000A0E1A1950A1B1250113028F00000A0E214
:1003D000A1950A1B115014E018B9102F107C1BB9FD
:1003E000102F1F7315B90E941C04000038B91BB8E8
:1003F00015B81B8100E0103828F00000A0E4A1959A
:100400000A1B1058103428F00000A0E8A1950A1B20
:100410001054103228F00000A1E0A1950A1B1052E0
:10042000103128F00000A2E0A1950A1B10511830ED
:1004300028F00000A4E0A1950A1B1850143028F001
:100440000000A8E0A1950A1B1450123028F000000B
:10045000A0E1A1950A1B1250113028F00000A0E283
:10046000A1950A1B115018E018B9102F107C1BB968
:10047000102F1F7315B90E941C0400001C8100E09E
:10048000103828F00000A0E4A1950A1B1058103481
:1004900028F00000A0E8A1950A1B1054103228F0A3
:1004A0000000A1E0A1950A1B1052103128F00000B5
:1004B000A2E0A1950A1B1051183028F00000A4E01A
:1004C000A1950A1B1850143028F00000A8E0A1954F
:1004D0000A1B1450123028F00000A0E1A1950A1B5D
:1004E0001250113028F00000A0E2A1950A1B115013
:1004F00018B8102F107C14601BB9102F1F7315B97A
:100500000E941C04000038B91BB815B81D8100E01A
:10051000103828F00000A0E4A1950A1B10581034F0
:1005200028F00000A0E8A1950A1B1054103228F012
:100530000000A1E0A1950A1B1052103128F0000024
:10054000A2E0A1950A1B1051183028F00000A4E089
:10055000A1950A1B1850143028F00000A8E0A195BE
:100560000A1B1450123028F00000A0E1A1950A1BCC
:100570001250113028F00000A0E2A1950A1B115082
:10058000102F107C18601BB9102F1F7315B90E9413
:100590001C04000038B91BB815B81E8100E01038E3
:1005A00028F00000A0E4A1950A1B1058103428F090
:1005B0000000A0E8A1950A1B1054103228F000009A
:1005C000A1E0A1950A1B1052103128F00000A2E012
:1005D000A1950A1B1051183028F00000A4E0A19545
:1005E0000A1B1850143028F00000A8E0A1950A1B3F
:1005F0001450123028F00000A0E1A1950A1B1250FF
:10060000113028F00000A0E2A1950A1B1150102F14
:10061000107C10611BB9102F1F7315B90E941C04A8
:10062000000038B91BB815B81F8100E0103828F059
:100630000000A0E4A1950A1B1058103428F0000017
:10064000A0E8A1950A1B1054103228F00000A1E088
:10065000A1950A1B1052103128F00000A2E0A195CC
:100660000A1B1051183028F00000A4E0A1950A1BC5
:100670001850143028F00000A8E0A1950A1B14506F
:10068000123028F00000A0E1A1950A1B1250113091
:1006900028F00000A0E2A1950A1B1150102F107C39
:1006A00010621BB9102F1F7315B90E941C040000A3
:1006B00038B91BB815B80C946100000015E0209102
:1006C0007C00287F212B20937C0010E420917A006D
:1006D000212B20937A0020917A0026FD0C946B0345
:1006E0000000309179000C947603000014E0209112
:1006F0007C00287F212B20937C0010E420917A003D
:10070000212B20937A0020917A0026FD0C948303FC
:100710000000409179000C948E0300003C3810F5E5
:1007200000003530C0F00000483238F4000041309D
:1007300058F000000C94B90300009430D1F0000090
:1007400098E00C94BC030000983099F0000094E00D
:100750000C94BC030000913061F0000092E00C9416
:10076000BC030000923029F0000091E00C94BC031F
:10077000000010927900089590FD0C94CF030000C2
:1007800091FD0C94DE03000092FD0C940004000027
:1007900093FD0C94ED0300000C94B903000010814C
:1007A000312F103730F40000105F10830C94B90320
:1007B00000001F7010830C94B90300001081312FCA
:1007C000103130F00000105110830C94B903000078
:1007D000106710830C94B90300001081312F212F72
:1007E0002F70203031F00000115010830C94B903A9
:1007F000000027E01077122B10830C94B90300003F
:100800001081312F212F2F70273031F000001F5F12
:1008100010830C94B90300001077112910830C94F5
:10082000B9030000188219821A821B821C821D8261
:100830001E821F82089500003DE04CEF4A95F1F7BB
:0E0840003A95E1F70895000051E01895000088
:00000001FF
