:020000020000FC
:100000000C94030000000FEF07B90FEF0AB90FEFD0
:1000100004B9F1E0E0E0D1E0C0E116E3108314E6BA
:10002000118314E5128314E41383188219821A824F
:100030001B821C821D821E821F8284E060E000E61B
:1000400010917C00012B00937C0007E810917A004E
:10005000012B00937A000E94310000000C94C5002F
:100060000000861729F100001081212F207F26959E
:100070002695269526952030F1F000002130F9F0E4
:100080000000223001F10000233009F1000024308B
:1000900011F10000253019F10000263021F1000097
:1000A000273029F100006F5FEF5F0C9431000000F2
:1000B000E0E00895000031E00C947B00000032E0A5
:1000C0000C947B00000034E00C947B00000038E0CE
:1000D0000C947B00000030E10C947B00000030E2C7
:1000E0000C947B00000030E40C947B00000030E8AE
:1000F0000C947B000000412F4F704030B1F00000A5
:100100004130C9F000004230E1F000004330F9F026
:100110000000443011F10000453029F10000463064
:1001200041F10000473059F100004881342B3883F9
:100130000C94530000004981342B39830C945300F4
:1001400000004A81342B3A830C94530000004B8109
:10015000342B3B830C94530000004C81342B3C83A4
:100160000C94530000004D81342B3D830C945300BC
:1001700000004E81342B3E830C94530000004F81CD
:10018000342B3F830C9453000000188100E010389A
:1001900028F00000A0E4A1950A1B1058103428F0A4
:1001A0000000A0E8A1950A1B1054103228F00000AE
:1001B000A1E0A1950A1B1052103128F00000A2E026
:1001C000A1950A1B1051183028F00000A4E0A19559
:1001D0000A1B1850143028F00000A8E0A1950A1B53
:1001E0001450123028F00000A0E1A1950A1B125013
:1001F000113028F00000A0E2A1950A1B115011E077
:1002000018B9102F107C1BB9102F1F7315B90E943D
:1002100066030000198100E0103828F00000A0E417
:10022000A1950A1B1058103428F00000A0E8A195F1
:100230000A1B1054103228F00000A1E0A1950A1BFF
:100240001052103128F00000A2E0A1950A1B1051B5
:10025000183028F00000A4E0A1950A1B18501430B3
:1002600028F00000A8E0A1950A1B1450123028F0D5
:100270000000A0E1A1950A1B1250113028F00000E7
:10028000A0E2A1950A1B115012E018B9102F107CA2
:100290001BB9102F1F7315B90E94660300001A8145
:1002A00000E0103828F00000A0E4A1950A1B1058C7
:1002B000103428F00000A0E8A1950A1B1054103259
:1002C00028F00000A1E0A1950A1B1052103128F07F
:1002D0000000A2E0A1950A1B1051183028F0000080
:1002E000A4E0A1950A1B1850143028F00000A8E0E3
:1002F000A1950A1B1450123028F00000A0E1A1952E
:100300000A1B1250113028F00000A0E2A1950A1B30
:10031000115014E018B9102F107C1BB9102F1F7347
:1003200015B90E94660300001B8100E0103828F018
:100330000000A0E4A1950A1B1058103428F000001A
:10034000A0E8A1950A1B1054103228F00000A1E08B
:10035000A1950A1B1052103128F00000A2E0A195CF
:100360000A1B1051183028F00000A4E0A1950A1BC8
:100370001850143028F00000A8E0A1950A1B145072
:10038000123028F00000A0E1A1950A1B1250113094
:1003900028F00000A0E2A1950A1B115018E018B93E
:1003A000102F107C1BB9102F1F7315B90E94660304
:1003B00000001C8100E0103828F00000A0E4A195A6
:1003C0000A1B1058103428F00000A0E8A1950A1B61
:1003D0001054103228F00000A1E0A1950A1B105221
:1003E000103128F00000A2E0A1950A1B105118302E
:1003F00028F00000A4E0A1950A1B1850143028F042
:100400000000A8E0A1950A1B1450123028F000004B
:10041000A0E1A1950A1B1250113028F00000A0E2C3
:10042000A1950A1B115018B8102F107C14601BB92D
:10043000102F1F7315B90E94660300001D8100E094
:10044000103828F00000A0E4A1950A1B10581034C1
:1004500028F00000A0E8A1950A1B1054103228F0E3
:100460000000A1E0A1950A1B1052103128F00000F5
:10047000A2E0A1950A1B1051183028F00000A4E05A
:10048000A1950A1B1850143028F00000A8E0A1958F
:100490000A1B1450123028F00000A0E1A1950A1B9D
:1004A0001250113028F00000A0E2A1950A1B115053
:1004B000102F107C18601BB9102F1F7315B90E94E4
:1004C000660300001E8100E0103828F00000A0E460
:1004D000A1950A1B1058103428F00000A0E8A1953F
:1004E0000A1B1054103228F00000A1E0A1950A1B4D
:1004F0001052103128F00000A2E0A1950A1B105103
:10050000183028F00000A4E0A1950A1B1850143000
:1005100028F00000A8E0A1950A1B1450123028F022
:100520000000A0E1A1950A1B1250113028F0000034
:10053000A0E2A1950A1B1150102F107C10611BB96D
:10054000102F1F7315B90E94660300001F8100E081
:10055000103828F00000A0E4A1950A1B10581034B0
:1005600028F00000A0E8A1950A1B1054103228F0D2
:100570000000A1E0A1950A1B1052103128F00000E4
:10058000A2E0A1950A1B1051183028F00000A4E049
:10059000A1950A1B1850143028F00000A8E0A1957E
:1005A0000A1B1450123028F00000A0E1A1950A1B8C
:1005B0001250113028F00000A0E2A1950A1B115042
:1005C000102F107C10621BB9102F1F7315B90E94D9
:1005D000660300000C94ED02000020917C0035E0E1
:1005E000232B20937C0020917A00206420937A00B2
:1005F00020917A0026FD0C94F802309179003B831B
:1006000032335CF50000313064F1000020917C0051
:100610003EEF232334E0232B20937C0020917A00AB
:10062000206420937A0020917A0026FD0C94130315
:100630000000309179003A8332333CF400003130CD
:1006400044F000000C942B00000098E00C9435035B
:10065000000094E00C943503000092E00C94350304
:10066000000091E00C9435030000988390FD0E94F7
:10067000450391FD0E944F0392FD0E945A0393FD92
:100680000E9458030C942B0000001081107F1695D7
:100690001695169516951150108308950000108137
:1006A000107F16951695169516951F5F08950000F4
:1006B0000895000008950000188219821A821B8292
:1006C0001C821D821E821F82089500003DE04CEFB7
:0C06D0004A95F1F73A95E1F70895000013
:00000001FF
