:020000020000FC
:100000000C94030000000FEF07B90FEF0AB90FEFD0
:1000100004B9F1E0E0E0D1E0C0E114E7108314E6B8
:10002000118314E5128314E41383188219821A824F
:100030001B821C821D821E821F8284E060E000E61B
:1000400010917C00012B00937C0007E810917A004E
:10005000012B00937A000E942F000C94A0008617B9
:10006000D9F01081212F207F26952695269526955B
:100070002030A1F02130A9F02230B1F02330B9F0C6
:100080002430C1F02530C9F02630D1F02730D9F026
:100090006F5FEF5F0C942F00E0E0089531E00C9467
:1000A000660032E00C94660034E00C94660038E0A0
:1000B0000C94660030E10C94660030E20C9466000B
:1000C00030E40C94660030E80C946600412F4F70C9
:1000D000403071F0413089F04230A1F04330B9F046
:1000E0004430D1F04530E9F0463001F1473019F1A4
:1000F0004881342B38830C9448004981342B398350
:100100000C9448004A81342B3A830C9448004B816C
:10011000342B3B830C9448004C81342B3C830C944F
:1001200048004D81342B3D830C9448004E81342B84
:100130003E830C9448004F81342B3F830C9448003D
:10014000188100E0103820F0A0E4A1950A1B105897
:10015000103420F0A0E8A1950A1B1054103220F0B2
:10016000A1E0A1950A1B1052103120F0A2E0A19548
:100170000A1B1051183020F0A4E0A1950A1B18505A
:10018000143020F0A8E0A1950A1B1450123020F082
:10019000A0E1A1950A1B1250113020F0A0E2A19518
:1001A0000A1B115011E018B9102F107C1BB9102F29
:1001B0001F7315B90E948802198100E0103820F0E1
:1001C000A0E4A1950A1B1058103420F0A0E8A195D6
:1001D0000A1B1054103220F0A1E0A1950A1B105206
:1001E000103120F0A2E0A1950A1B1051183020F028
:1001F000A4E0A1950A1B1850143020F0A8E0A195A6
:100200000A1B1450123020F0A0E1A1950A1B1250D5
:10021000113020F0A0E2A1950A1B115012E018B98C
:10022000102F107C1BB9102F1F7315B90E94880264
:100230001A8100E0103820F0A0E4A1950A1B1058A4
:10024000103420F0A0E8A1950A1B1054103220F0C1
:10025000A1E0A1950A1B1052103120F0A2E0A19557
:100260000A1B1051183020F0A4E0A1950A1B185069
:10027000143020F0A8E0A1950A1B1450123020F091
:10028000A0E1A1950A1B1250113020F0A0E2A19527
:100290000A1B115014E018B9102F107C1BB9102F35
:1002A0001F7315B90E9488021B8100E0103820F0EE
:1002B000A0E4A1950A1B1058103420F0A0E8A195E5
:1002C0000A1B1054103220F0A1E0A1950A1B105215
:1002D000103120F0A2E0A1950A1B1051183020F037
:1002E000A4E0A1950A1B1850143020F0A8E0A195B5
:1002F0000A1B1450123020F0A0E1A1950A1B1250E5
:10030000113020F0A0E2A1950A1B115018E018B995
:10031000102F107C1BB9102F1F7315B90E94880273
:100320001C8100E0103820F0A0E4A1950A1B1058B1
:10033000103420F0A0E8A1950A1B1054103220F0D0
:10034000A1E0A1950A1B1052103120F0A2E0A19566
:100350000A1B1051183020F0A4E0A1950A1B185078
:10036000143020F0A8E0A1950A1B1450123020F0A0
:10037000A0E1A1950A1B1250113020F0A0E2A19536
:100380000A1B115018B8102F107C14601BB9102FC5
:100390001F7315B90E9488021D8100E0103820F0FB
:1003A000A0E4A1950A1B1058103420F0A0E8A195F4
:1003B0000A1B1054103220F0A1E0A1950A1B105224
:1003C000103120F0A2E0A1950A1B1051183020F046
:1003D000A4E0A1950A1B1850143020F0A8E0A195C4
:1003E0000A1B1450123020F0A0E1A1950A1B1250F4
:1003F000113020F0A0E2A1950A1B1150102F107CA3
:1004000018601BB9102F1F7315B90E9488021E8136
:1004100000E0103820F0A0E4A1950A1B1058103419
:1004200020F0A0E8A1950A1B1054103220F0A1E0A2
:10043000A1950A1B1052103120F0A2E0A1950A1BD1
:100440001051183020F0A4E0A1950A1B1850143068
:1004500020F0A8E0A1950A1B1450123020F0A0E172
:10046000A1950A1B1250113020F0A0E2A1950A1BA1
:100470001150102F107C10611BB9102F1F7315B96C
:100480000E9488021F8100E0103820F0A0E4A195AE
:100490000A1B1058103420F0A0E8A1950A1B105434
:1004A000103220F0A1E0A1950A1B1052103120F06B
:1004B000A2E0A1950A1B1051183020F0A4E0A195EC
:1004C0000A1B1850143020F0A8E0A1950A1B145004
:1004D000123020F0A0E1A1950A1B1250113020F03B
:1004E000A0E2A1950A1B1150102F107C10621BB9BD
:1004F000102F1F7315B90E9488020C942B001882CC
:1005000019821A821B821C821D821E821F820895FC
:0E0510003DE04CEF4A95F1F73A95E1F708957A
:00000001FF
