:020000020000FC
:060000000C942300000037
:100040000C94680400000FE107B90CEF0AB90FE344
:1000500004B9F1E0E0E0D1E0C0E484E0782F7395EA
:1000600060E091E014E4108313E4118312E412833E
:1000700011E413830E9442040000188219821A823C
:100080001B821C821D821E821F8210E610937C0040
:1000900017E810937A0018E01EBF1FEF1DBF789479
:1000A0001091250016601093450011E020916E001C
:1000B000122B10936E0010E020E030E040E000E0F2
:1000C00050E060E00C94230100000E946B000000EF
:1000D0000C945B000000513081F40E941304000076
:1000E0000E94610300000E94250400000E947F001E
:1000F00000000E949000000050E00895000011915F
:100100008F938A95861739F010813193312F63953B
:100110000C948200000060E08F91E0E00895000000
:10012000761721F100001191212F207F2695269529
:10013000269526952030E9F000002130F1F00000EE
:100140002230F9F00000233001F10000243009F1E1
:100150000000253011F10000263019F10000273091
:1001600021F100006F5F0C9490000000E0E0089522
:10017000000031E00C94D900000032E00C94D9006A
:10018000000034E00C94D900000038E00C94D90051
:10019000000030E10C94D900000030E20C94D9004A
:1001A000000030E40C94D900000030E80C94D90031
:1001B0000000412F4F704030B1F000004130C9F0D5
:1001C00000004230E1F000004330F9F0000044301C
:1001D00011F10000453029F10000463041F10000E6
:1001E000473059F100004881342B38830C94B20019
:1001F00000004981342B39830C94B20000004A81FD
:10020000342B3A830C94B20000004B81342B3B8397
:100210000C94B20000004C81342B3C830C94B2004F
:1002200000004D81342B3D830C94B20000004E81C0
:10023000342B3E830C94B20000004F81342B3F835B
:100240000C94B2000000188100E0103828F0000083
:10025000A0E4A1950A1B1058103428F00000A0E873
:10026000A1950A1B1054103228F00000A1E0A195BE
:100270000A1B1052103128F00000A2E0A1950A1BC1
:100280001051183028F00000A4E0A1950A1B185066
:10029000143028F00000A8E0A1950A1B1450123079
:1002A00028F00000A0E1A1950A1B1250113028F09F
:1002B0000000A0E2A1950A1B115011E018B9102FFF
:1002C000107C1BB9102F1F7315B90E941D0400006C
:1002D00030E338B91BB815B8198100E0103828F0A0
:1002E0000000A0E4A1950A1B1058103428F000006B
:1002F000A0E8A1950A1B1054103228F00000A1E0DC
:10030000A1950A1B1052103128F00000A2E0A1951F
:100310000A1B1051183028F00000A4E0A1950A1B18
:100320001850143028F00000A8E0A1950A1B1450C2
:10033000123028F00000A0E1A1950A1B12501130E4
:1003400028F00000A0E2A1950A1B115012E018B994
:10035000102F107C1BB9102F1F7315B90E941D049C
:10036000000038B91BB815B81A8100E0103828F021
:100370000000A0E4A1950A1B1058103428F00000DA
:10038000A0E8A1950A1B1054103228F00000A1E04B
:10039000A1950A1B1052103128F00000A2E0A1958F
:1003A0000A1B1051183028F00000A4E0A1950A1B88
:1003B0001850143028F00000A8E0A1950A1B145032
:1003C000123028F00000A0E1A1950A1B1250113054
:1003D00028F00000A0E2A1950A1B115014E018B902
:1003E000102F107C1BB9102F1F7315B90E941D040C
:1003F000000038B91BB815B81B8100E0103828F090
:100400000000A0E4A1950A1B1058103428F0000049
:10041000A0E8A1950A1B1054103228F00000A1E0BA
:10042000A1950A1B1052103128F00000A2E0A195FE
:100430000A1B1051183028F00000A4E0A1950A1BF7
:100440001850143028F00000A8E0A1950A1B1450A1
:10045000123028F00000A0E1A1950A1B12501130C3
:1004600028F00000A0E2A1950A1B115018E018B96D
:10047000102F107C1BB9102F1F7315B90E941D047B
:1004800000001C8100E0103828F00000A0E4A195D5
:100490000A1B1058103428F00000A0E8A1950A1B90
:1004A0001054103228F00000A1E0A1950A1B105250
:1004B000103128F00000A2E0A1950A1B105118305D
:1004C00028F00000A4E0A1950A1B1850143028F071
:1004D0000000A8E0A1950A1B1450123028F000007B
:1004E000A0E1A1950A1B1250113028F00000A0E2F3
:1004F000A1950A1B115018B8102F107C14601BB95D
:10050000102F1F7315B90E941D04000038B91BB8C5
:1005100015B81D8100E0103828F00000A0E4A19576
:100520000A1B1058103428F00000A0E8A1950A1BFF
:100530001054103228F00000A1E0A1950A1B1052BF
:10054000103128F00000A2E0A1950A1B10511830CC
:1005500028F00000A4E0A1950A1B1850143028F0E0
:100560000000A8E0A1950A1B1450123028F00000EA
:10057000A0E1A1950A1B1250113028F00000A0E262
:10058000A1950A1B1150102F107C18601BB9102F59
:100590001F7315B90E941D04000038B91BB815B8A7
:1005A0001E8100E0103828F00000A0E4A1950A1B8D
:1005B0001058103428F00000A0E8A1950A1B105430
:1005C000103228F00000A1E0A1950A1B1052103152
:1005D00028F00000A2E0A1950A1B1051183028F065
:1005E0000000A4E0A1950A1B1850143028F0000068
:1005F000A8E0A1950A1B1450123028F00000A0E1D9
:10060000A1950A1B1250113028F00000A0E2A1951C
:100610000A1B1150102F107C10611BB9102F1F7373
:1006200015B90E941D04000038B91BB815B81F8108
:1006300000E0103828F00000A0E4A1950A1B105833
:10064000103428F00000A0E8A1950A1B10541032C5
:1006500028F00000A1E0A1950A1B1052103128F0EB
:100660000000A2E0A1950A1B1051183028F00000EC
:10067000A4E0A1950A1B1850143028F00000A8E04F
:10068000A1950A1B1450123028F00000A0E1A1959A
:100690000A1B1250113028F00000A0E2A1950A1B9D
:1006A0001150102F107C10621BB9102F1F7315B939
:1006B0000E941D04000038B91BB815B80C946500E1
:1006C000000015E020917C00287F212B20937C00E6
:1006D00010E420917A00212B20937A0020917A0057
:1006E00026FD0C946E030000309179000C94790380
:1006F000000014E020917C00287F212B20937C00B7
:1007000010E420917A00212B20937A0020917A0026
:1007100026FD0C9486030000409179000C9491030F
:1007200000003C3810F500003530C0F000004832C1
:1007300038F40000413058F000000C94BC03000075
:100740009430D1F0000098E00C94BD030000983084
:1007500099F0000094E00C94BD030000913061F02A
:10076000000092E00C94BD030000923029F00000DC
:1007700091E00C94BD030000089590FD0C94D0030B
:10078000000091FD0C94DF03000092FD0C94010425
:10079000000093FD0C94EE0300000C94BC030000D9
:1007A0001081312F103730F40000105F10830C944B
:1007B000BC0300001F7010830C94BC030000108168
:1007C000312F103130F00000105110830C94BC0315
:1007D0000000106710830C94BC0300001081312FBF
:1007E000212F2F70203031F00000115010830C9415
:1007F000BC03000027E01077122B10830C94BC037D
:1008000000001081312F212F2F70273031F0000090
:100810001F5F10830C94BC03000010771129108314
:100820000C94BC030000188219821A821B821C825D
:100830001D821E821F82089500003DE04CEF4A9504
:10084000F1F73A95E1F7089500001081761741F429
:1008500000002291121749F000000C943E040000A1
:10086000219163950C942604000083950E946B04EB
:10087000000060E0E0E00C944204000060E0E0E092
:100880000895000010917900861771F000001F5F35
:1008900017772191211721F400000C9444040000E3
:1008A00063950C9449040000E0E060E00C94590466
:1008B0000000761721F410830C9464040000219149
:1008C00063950C9459040000E0E060E00895000096
:0E08D00051E018950000782F739508950000F0
:00000001FF
