:020000020000FC
:100000000C94030000000FEF07B90FEF0AB90FEFD0
:1000100004B9D1E0C0E014E7188314E6198314E5AD
:100020001A8314E41B8384E061E000E610917C00F5
:10003000012B00937C0007E810917A00012B0093BC
:100040007A005FEF0E9426000C946A008617D9F0B0
:100050001881212F207F26952695269526952030DC
:1000600099F02130A1F02230A9F02330B1F02430F2
:10007000B9F02530C1F02630C9F02730D1F06F5FDC
:10008000C0E00C942600089531E00C945C0032E04E
:100090000C945C0034E00C945C0038E00C945C0040
:1000A00030E10C945C0030E20C945C0030E40C9481
:1000B0005C0030E80C945C00C0E0412F4F70413090
:1000C00020F0CF5F41500C945F0048814983388312
:1000D0000C943F00188100E0103820F0A0E4A195B6
:1000E0000A1B1058103420F0A0E8A1950A1B1054E8
:1000F000103220F0A1E0A1950A1B1052103120F01F
:10010000A2E0A1950A1B1051183020F0A4E0A1959F
:100110000A1B1850143020F0A8E0A1950A1B1450B7
:10012000123020F0A0E1A1950A1B1250113020F0EE
:10013000A0E2A1950A1B115011E018B9102F107CF4
:100140001BB9102F1F7315B90E944902198100E0D5
:10015000103820F0A0E4A1950A1B1058103420F0AC
:10016000A0E8A1950A1B1054103220F0A1E0A1953F
:100170000A1B1052103120F0A2E0A1950A1B105169
:10018000183020F0A4E0A1950A1B1850143020F07C
:10019000A8E0A1950A1B1450123020F0A0E1A1950F
:1001A0000A1B1250113020F0A0E2A1950A1B115039
:1001B00012E018B9102F107C1BB9102F1F7315B93E
:1001C0000E9449021A8100E0103820F0A0E4A195B5
:1001D0000A1B1058103420F0A0E8A1950A1B1054F7
:1001E000103220F0A1E0A1950A1B1052103120F02E
:1001F000A2E0A1950A1B1051183020F0A4E0A195AF
:100200000A1B1850143020F0A8E0A1950A1B1450C6
:10021000123020F0A0E1A1950A1B1250113020F0FD
:10022000A0E2A1950A1B115014E018B9102F107C00
:100230001BB9102F1F7315B90E9449021B8100E0E2
:10024000103820F0A0E4A1950A1B1058103420F0BB
:10025000A0E8A1950A1B1054103220F0A1E0A1954E
:100260000A1B1052103120F0A2E0A1950A1B105178
:10027000183020F0A4E0A1950A1B1850143020F08B
:10028000A8E0A1950A1B1450123020F0A0E1A1951E
:100290000A1B1250113020F0A0E2A1950A1B115048
:1002A00018E018B9102F107C1BB9102F1F7315B947
:1002B0000E9449021C8100E0103820F0A0E4A195C2
:1002C0000A1B1058103420F0A0E8A1950A1B105406
:1002D000103220F0A1E0A1950A1B1052103120F03D
:1002E000A2E0A1950A1B1051183020F0A4E0A195BE
:1002F0000A1B1850143020F0A8E0A1950A1B1450D6
:10030000123020F0A0E1A1950A1B1250113020F00C
:10031000A0E2A1950A1B115018B8102F107C146090
:100320001BB9102F1F7315B90E9449021D8100E0EF
:10033000103820F0A0E4A1950A1B1058103420F0CA
:10034000A0E8A1950A1B1054103220F0A1E0A1955D
:100350000A1B1052103120F0A2E0A1950A1B105187
:10036000183020F0A4E0A1950A1B1850143020F09A
:10037000A8E0A1950A1B1450123020F0A0E1A1952D
:100380000A1B1250113020F0A0E2A1950A1B115057
:10039000102F107C18601BB9102F1F7315B90E9405
:1003A00049021E8100E0103820F0A0E4A1950A1B4C
:1003B0001058103420F0A0E8A1950A1B10541032F8
:1003C00020F0A1E0A1950A1B1052103120F0A2E00C
:1003D000A1950A1B1051183020F0A4E0A1950A1B2A
:1003E0001850143020F0A8E0A1950A1B14501230C8
:1003F00020F0A0E1A1950A1B1250113020F0A0E2DC
:10040000A1950A1B1150102F107C10611BB9102FE1
:100410001F7315B90E9449021F8100E0103820F0B7
:10042000A0E4A1950A1B1058103420F0A0E8A19573
:100430000A1B1054103220F0A1E0A1950A1B1052A3
:10044000103120F0A2E0A1950A1B1051183020F0C5
:10045000A4E0A1950A1B1850143020F0A8E0A19543
:100460000A1B1450123020F0A0E1A1950A1B125073
:10047000113020F0A0E2A1950A1B1150102F107C22
:1004800010621BB9102F1F7315B90E9449020C94FA
:1004900021003DE04CEF4A95F1F73A95E1F70895D8
:1004A000188219821A821B821C821D821E821F8260
:0204B0000895AD
:00000001FF
