:020000020000FC
:100000000C94030000000FEF07B90FEF0AB90FEFD0
:1000100004B9D1E0C0E0F1E0E8E020E0288320E08E
:10002000298320E02A8320E02B8320E12C8320E019
:100030002D8320E02E8320E02F8300E610917C00AA
:10004000012B00937C0007E810917A00012B0093AC
:100050007A00188100E0103820F0A0E4A1950A1B76
:100060001058103420F0A0E8A1950A1B105410324B
:1000700020F0A1E0A1950A1B1052103120F0A2E05F
:10008000A1950A1B1051183020F0A4E0A1950A1B7D
:100090001850143020F0A8E0A1950A1B145012301B
:1000A00020F0A0E1A1950A1B1250113020F0A0E22F
:1000B000A1950A1B115011E018B9102F107C1BB923
:1000C000102F1F7315B90E944402198100E01038E7
:1000D00020F0A0E4A1950A1B1058103420F0A0E8ED
:1000E000A1950A1B1054103220F0A1E0A1950A1B23
:1000F0001052103120F0A2E0A1950A1B10511830C7
:1001000020F0A4E0A1950A1B1850143020F0A8E0BC
:10011000A1950A1B1450123020F0A0E1A1950A1BF2
:100120001250113020F0A0E2A1950A1B115012E0EC
:1001300018B9102F107C1BB9102F1F7315B90E940E
:1001400044021A8100E0103820F0A0E4A1950A1BB7
:100150001058103420F0A0E8A1950A1B105410325A
:1001600020F0A1E0A1950A1B1052103120F0A2E06E
:10017000A1950A1B1051183020F0A4E0A1950A1B8C
:100180001850143020F0A8E0A1950A1B145012302A
:1001900020F0A0E1A1950A1B1250113020F0A0E23E
:1001A000A1950A1B115014E018B9102F107C1BB92F
:1001B000102F1F7315B90E9444021B8100E01038F4
:1001C00020F0A0E4A1950A1B1058103420F0A0E8FC
:1001D000A1950A1B1054103220F0A1E0A1950A1B32
:1001E0001052103120F0A2E0A1950A1B10511830D6
:1001F00020F0A4E0A1950A1B1850143020F0A8E0CC
:10020000A1950A1B1450123020F0A0E1A1950A1B01
:100210001250113020F0A0E2A1950A1B115018E0F5
:1002200018B9102F107C1BB9102F1F7315B90E941D
:1002300044021C8100E0103820F0A0E4A1950A1BC4
:100240001058103420F0A0E8A1950A1B1054103269
:1002500020F0A1E0A1950A1B1052103120F0A2E07D
:10026000A1950A1B1051183020F0A4E0A1950A1B9B
:100270001850143020F0A8E0A1950A1B1450123039
:1002800020F0A0E1A1950A1B1250113020F0A0E24D
:10029000A1950A1B115018B8102F107C14601BB9BF
:1002A000102F1F7315B90E9444021D8100E0103801
:1002B00020F0A0E4A1950A1B1058103420F0A0E80B
:1002C000A1950A1B1054103220F0A1E0A1950A1B41
:1002D0001052103120F0A2E0A1950A1B10511830E5
:1002E00020F0A4E0A1950A1B1850143020F0A8E0DB
:1002F000A1950A1B1450123020F0A0E1A1950A1B11
:100300001250113020F0A0E2A1950A1B1150102FBD
:10031000107C18601BB9102F1F7315B90E9444027E
:100320001E8100E0103820F0A0E4A1950A1B1058AF
:10033000103420F0A0E8A1950A1B1054103220F0D0
:10034000A1E0A1950A1B1052103120F0A2E0A19566
:100350000A1B1051183020F0A4E0A1950A1B185078
:10036000143020F0A8E0A1950A1B1450123020F0A0
:10037000A0E1A1950A1B1250113020F0A0E2A19536
:100380000A1B1150102F107C10611BB9102F1F7306
:1003900015B90E9444021F8100E0103820F0A0E44B
:1003A000A1950A1B1058103420F0A0E8A1950A1B53
:1003B0001054103220F0A1E0A1950A1B1052103108
:1003C00020F0A2E0A1950A1B1051183020F0A4E003
:1003D000A1950A1B1850143020F0A8E0A1950A1B23
:1003E0001450123020F0A0E1A1950A1B12501130D8
:1003F00020F0A0E2A1950A1B1150102F107C106272
:100400001BB9102F1F7315B90E94440220917C0064
:1004100035E0232B20937C0020917A0020642093E8
:100420007A0020917A0026FD0C94110280917900C7
:10043000843020F5782F823020F120917C003EEF2F
:10044000232334E0232B20937C0020917A00206426
:1004500020937A0020917A0026FD0C942A02809144
:100460007900823828F4782F843628F00C942900FB
:1004700098E00C944B0294E00C944B0292E00C94A4
:100480004B0291E00C944B023DE04CEF4A95F1F7A2
:100490003A95E1F70895288121301CF4CF5F0C9440
:1004A0004B02988390FD0E94600291FD0E946202BF
:1004B00092FD0E94650293FD0E9464020C94290043
:1004C000220F089526950895089508951882198297
:0E04D0001A821B821C821D821E821F820895CA
:00000001FF
