:020000020000FC
:100000000C94030000000FEF07B90FEF0AB90FEFD0
:1000100004B900E600937C0007E800937A0020E032
:1000200030E040E050E060E170E080E090E0122FCE
:1000300000E0103820F0A0E4A1950A1B10581034FD
:1000400020F0A0E8A1950A1B1054103220F0A1E086
:10005000A1950A1B1052103120F0A2E0A1950A1BB5
:100060001051183020F0A4E0A1950A1B185014304C
:1000700020F0A8E0A1950A1B1450123020F0A0E156
:10008000A1950A1B1250113020F0A0E2A1950A1B85
:10009000115011E018B9102F107C1BB9102F1F73CD
:1000A00015B90E941102132F00E0103820F0A0E4CF
:1000B000A1950A1B1058103420F0A0E8A1950A1B46
:1000C0001054103220F0A1E0A1950A1B10521031FB
:1000D00020F0A2E0A1950A1B1051183020F0A4E0F6
:1000E000A1950A1B1850143020F0A8E0A1950A1B16
:1000F0001450123020F0A0E1A1950A1B12501130CB
:1001000020F0A0E2A1950A1B115012E018B9102F9F
:10011000107C1BB9102F1F7315B90E941102142FE8
:1001200000E0103820F0A0E4A1950A1B105810340C
:1001300020F0A0E8A1950A1B1054103220F0A1E095
:10014000A1950A1B1052103120F0A2E0A1950A1BC4
:100150001051183020F0A4E0A1950A1B185014305B
:1001600020F0A8E0A1950A1B1450123020F0A0E165
:10017000A1950A1B1250113020F0A0E2A1950A1B94
:10018000115014E018B9102F107C1BB9102F1F73D9
:1001900015B90E941102152F00E0103820F0A0E4DC
:1001A000A1950A1B1058103420F0A0E8A1950A1B55
:1001B0001054103220F0A1E0A1950A1B105210310A
:1001C00020F0A2E0A1950A1B1051183020F0A4E005
:1001D000A1950A1B1850143020F0A8E0A1950A1B25
:1001E0001450123020F0A0E1A1950A1B12501130DA
:1001F00020F0A0E2A1950A1B115018E018B9102FA9
:10020000107C1BB9102F1F7315B90E941102162FF5
:1002100000E0103820F0A0E4A1950A1B105810341B
:1002200020F0A0E8A1950A1B1054103220F0A1E0A4
:10023000A1950A1B1052103120F0A2E0A1950A1BD3
:100240001051183020F0A4E0A1950A1B185014306A
:1002500020F0A8E0A1950A1B1450123020F0A0E174
:10026000A1950A1B1250113020F0A0E2A1950A1BA3
:10027000115018B8102F107C14601BB9102F1F7369
:1002800015B90E941102172F00E0103820F0A0E4E9
:10029000A1950A1B1058103420F0A0E8A1950A1B64
:1002A0001054103220F0A1E0A1950A1B1052103119
:1002B00020F0A2E0A1950A1B1051183020F0A4E014
:1002C000A1950A1B1850143020F0A8E0A1950A1B34
:1002D0001450123020F0A0E1A1950A1B12501130E9
:1002E00020F0A0E2A1950A1B1150102F107C18607D
:1002F0001BB9102F1F7315B90E941102182F00E0AF
:10030000103820F0A0E4A1950A1B1058103420F0FA
:10031000A0E8A1950A1B1054103220F0A1E0A1958D
:100320000A1B1052103120F0A2E0A1950A1B1051B7
:10033000183020F0A4E0A1950A1B1850143020F0CA
:10034000A8E0A1950A1B1450123020F0A0E1A1955D
:100350000A1B1250113020F0A0E2A1950A1B115087
:10036000102F107C10611BB9102F1F7315B90E943C
:100370001102192F00E0103820F0A0E4A1950A1B0B
:100380001058103420F0A0E8A1950A1B1054103228
:1003900020F0A1E0A1950A1B1052103120F0A2E03C
:1003A000A1950A1B1051183020F0A4E0A1950A1B5A
:1003B0001850143020F0A8E0A1950A1B14501230F8
:1003C00020F0A0E1A1950A1B1250113020F0A0E20C
:1003D000A1950A1B1150102F107C10621BB9102F11
:1003E0001F7315B90E941102000024E620937C00BF
:1003F00020917A00206420937A0020917A0026FDD3
:100400000C94FD01D0917900D0382CF410E01BB988
:100410000C940F0000001FEF1BB90E9411020C94F6
:100420000F00B6E9CCEFCA95F1F7BA95E1F7089558
:00000001FF
