:020000020000FC
:060000000C942300000037
:100040000C94A20300000FEF07B90FEF0AB90FEFEE
:1000500004B9F1E0E0E0D1E0C0E114E0108314E67F
:10006000118314E5128314E41383188219821A820F
:100070001B821C821D821E821F8284E060E010E6CB
:1000800010937C0017E810937A0078941091250063
:100090001560109325005FEF0E94520000000C9441
:1000A000EE0000000E94160300000E945A000000AB
:1000B00008950000861729F100001081212F207F6C
:1000C00026952695269526952030F1F000002130C2
:1000D000F9F00000223001F10000233009F10000A6
:1000E000243011F10000253019F10000263021F1F3
:1000F0000000273029F100006F5FEF5F0C945A0079
:100100000000E0E00895000031E00C94A40000003D
:1001100032E00C94A400000034E00C94A400000031
:1001200038E00C94A400000030E10C94A40000001E
:1001300030E20C94A400000030E40C94A400000011
:1001400030E80C94A4000000412F4F704030B1F013
:1001500000004130C9F000004230E1F000004330BF
:10016000F9F00000443011F10000453029F10000A1
:10017000463041F10000473059F100004881342BEE
:1001800038830C947C0000004981342B39830C9413
:100190007C0000004A81342B3A830C947C000000E0
:1001A0004B81342B3B830C947C0000004C81342B1E
:1001B0003C830C947C0000004D81342B3D830C94D7
:1001C0007C0000004E81342B3E830C947C000000A8
:1001D0004F81342B3F830C947C000000188100E099
:1001E000103828F00000A0E4A1950A1B1058103424
:1001F00028F00000A0E8A1950A1B1054103228F046
:100200000000A1E0A1950A1B1052103128F0000057
:10021000A2E0A1950A1B1051183028F00000A4E0BC
:10022000A1950A1B1850143028F00000A8E0A195F1
:100230000A1B1450123028F00000A0E1A1950A1BFF
:100240001250113028F00000A0E2A1950A1B1150B5
:1002500011E018B9102F107C1BB9102F1F7315B99E
:100260000E949A030000198100E0103828F0000075
:10027000A0E4A1950A1B1058103428F00000A0E853
:10028000A1950A1B1054103228F00000A1E0A1959E
:100290000A1B1052103128F00000A2E0A1950A1BA1
:1002A0001051183028F00000A4E0A1950A1B185046
:1002B000143028F00000A8E0A1950A1B1450123059
:1002C00028F00000A0E1A1950A1B1250113028F07F
:1002D0000000A0E2A1950A1B115012E018B9102FDE
:1002E000107C1BB9102F1F7315B90E949A030000D0
:1002F0001A8100E0103828F00000A0E4A1950A1B44
:100300001058103428F00000A0E8A1950A1B1054E2
:10031000103228F00000A1E0A1950A1B1052103104
:1003200028F00000A2E0A1950A1B1051183028F017
:100330000000A4E0A1950A1B1850143028F000001A
:10034000A8E0A1950A1B1450123028F00000A0E18B
:10035000A1950A1B1250113028F00000A0E2A195CF
:100360000A1B115014E018B9102F107C1BB9102F64
:100370001F7315B90E949A0300001B8100E010381A
:1003800028F00000A0E4A1950A1B1058103428F0B2
:100390000000A0E8A1950A1B1054103228F00000BC
:1003A000A1E0A1950A1B1052103128F00000A2E034
:1003B000A1950A1B1051183028F00000A4E0A19567
:1003C0000A1B1850143028F00000A8E0A1950A1B61
:1003D0001450123028F00000A0E1A1950A1B125021
:1003E000113028F00000A0E2A1950A1B115018E07E
:1003F00018B9102F107C1BB9102F1F7315B90E944C
:100400009A0300001C8100E0103828F00000A0E4EE
:10041000A1950A1B1058103428F00000A0E8A195FF
:100420000A1B1054103228F00000A1E0A1950A1B0D
:100430001052103128F00000A2E0A1950A1B1051C3
:10044000183028F00000A4E0A1950A1B18501430C1
:1004500028F00000A8E0A1950A1B1450123028F0E3
:100460000000A0E1A1950A1B1250113028F00000F5
:10047000A0E2A1950A1B115018B8102F107C14602F
:100480001BB9102F1F7315B90E949A0300001D811C
:1004900000E0103828F00000A0E4A1950A1B1058D5
:1004A000103428F00000A0E8A1950A1B1054103267
:1004B00028F00000A1E0A1950A1B1052103128F08D
:1004C0000000A2E0A1950A1B1051183028F000008E
:1004D000A4E0A1950A1B1850143028F00000A8E0F1
:1004E000A1950A1B1450123028F00000A0E1A1953C
:1004F0000A1B1250113028F00000A0E2A1950A1B3F
:100500001150102F107C18601BB9102F1F7315B9D4
:100510000E949A0300001E8100E0103828F00000BD
:10052000A0E4A1950A1B1058103428F00000A0E8A0
:10053000A1950A1B1054103228F00000A1E0A195EB
:100540000A1B1052103128F00000A2E0A1950A1BEE
:100550001051183028F00000A4E0A1950A1B185093
:10056000143028F00000A8E0A1950A1B14501230A6
:1005700028F00000A0E1A1950A1B1250113028F0CC
:100580000000A0E2A1950A1B1150102F107C1061F1
:100590001BB9102F1F7315B90E949A0300001F8109
:1005A00000E0103828F00000A0E4A1950A1B1058C4
:1005B000103428F00000A0E8A1950A1B1054103256
:1005C00028F00000A1E0A1950A1B1052103128F07C
:1005D0000000A2E0A1950A1B1051183028F000007D
:1005E000A4E0A1950A1B1850143028F00000A8E0E0
:1005F000A1950A1B1450123028F00000A0E1A1952B
:100600000A1B1250113028F00000A0E2A1950A1B2D
:100610001150102F107C10621BB9102F1F7315B9C9
:100620000E949A0300000C944C00000015E02091F9
:100630007C00287F212B20937C0010E420917A00FD
:10064000212B20937A0020917A0026FD0C9423031D
:1006500000003091790038830C942F03000014E0DF
:1006600020917C00287F212B20937C0010E4209196
:100670007A00212B20937A0020917A0026FD0C9499
:100680003C030000409179000C94470300003A3588
:1006900038F40000313040F000000C948F0300006B
:1006A00098E00C946003000094E00C946003000058
:1006B00092E00C946003000091E00C946003000051
:1006C0009F8390FD0C947703000091FD0C947D03B3
:1006D00000000C942F03000092FD0C94890300008D
:1006E00093FD0C94830300000C948F030000108191
:1006F000105F10830C948F03000010811051108341
:100700000C948F0300001081115010830C948F0300
:10071000000010811F5F10830C948F030000089568
:10072000188219821A821B821C821D821E821F82DD
:10073000089500003DE04CEF4A95F1F73A95E1F756
:040740000895000018
:00000001FF
