:020000020000FC
:060000000C942300000037
:100040000C94D50300000FE107B90CEF0AB90FE3D8
:1000500004B9F1E0E0E0D1E0C0E184E070E060E00C
:1000600014E01083188219821A821B821C821D825E
:100070001E821F8210E610937C0017E810937A000E
:1000800078941091250016601093450011E020919E
:100090006E00122B10936E00F1E0E0E0D1E0C0E1C1
:1000A00010E020E030E040E000E050E060E00C9440
:1000B000090100000E94600000000C944C00000048
:1000C000513051F40E94C30300000E9476000000EA
:1000D0000E946E00000050E008950000E0E01081F2
:1000E0001983105F10831A8308950000861721F189
:1000F00000001191212F207F269526952695269583
:100100002030E9F000002130F1F000002230F9F059
:100110000000233001F10000243009F100002530F7
:1001200011F10000263019F10000273021F1000004
:100130006F5F0C9476000000E0E00895000031E06D
:100140000C94BF00000032E00C94BF00000034E0CB
:100150000C94BF00000038E00C94BF00000030E1B8
:100160000C94BF00000030E20C94BF00000030E4AB
:100170000C94BF00000030E80C94BF000000412F39
:100180004F704030B1F000004130C9F00000423003
:10019000E1F000004330F9F00000443011F10000BC
:1001A000453029F10000463041F10000473059F157
:1001B00000004881342B38830C949800000049815A
:1001C000342B39830C94980000004A81342B3A83F5
:1001D0000C94980000004B81342B3B830C949800C6
:1001E00000004C81342B3C830C94980000004D811E
:1001F000342B3D830C94980000004E81342B3E83B9
:100200000C94980000004F81342B3F830C9498008D
:100210000000188100E0103828F00000A0E4A1954B
:100220000A1B1058103428F00000A0E8A1950A1B02
:100230001054103228F00000A1E0A1950A1B1052C2
:10024000103128F00000A2E0A1950A1B10511830CF
:1002500028F00000A4E0A1950A1B1850143028F0E3
:100260000000A8E0A1950A1B1450123028F00000ED
:10027000A0E1A1950A1B1250113028F00000A0E265
:10028000A1950A1B115011E018B9102F107C1BB951
:10029000102F1F7315B90E94CD03000030E338B949
:1002A0001BB815B8198100E0103828F00000A0E450
:1002B000A1950A1B1058103428F00000A0E8A19561
:1002C0000A1B1054103228F00000A1E0A1950A1B6F
:1002D0001052103128F00000A2E0A1950A1B105125
:1002E000183028F00000A4E0A1950A1B1850143023
:1002F00028F00000A8E0A1950A1B1450123028F045
:100300000000A0E1A1950A1B1250113028F0000056
:10031000A0E2A1950A1B115012E018B9102F107C11
:100320001BB9102F1F7315B90E94CD03000038B9F7
:100330001BB815B81A8100E0103828F00000A0E4BE
:10034000A1950A1B1058103428F00000A0E8A195D0
:100350000A1B1054103228F00000A1E0A1950A1BDE
:100360001052103128F00000A2E0A1950A1B105194
:10037000183028F00000A4E0A1950A1B1850143092
:1003800028F00000A8E0A1950A1B1450123028F0B4
:100390000000A0E1A1950A1B1250113028F00000C6
:1003A000A0E2A1950A1B115014E018B9102F107C7F
:1003B0001BB9102F1F7315B90E94CD03000038B967
:1003C0001BB815B81B8100E0103828F00000A0E42D
:1003D000A1950A1B1058103428F00000A0E8A19540
:1003E0000A1B1054103228F00000A1E0A1950A1B4E
:1003F0001052103128F00000A2E0A1950A1B105104
:10040000183028F00000A4E0A1950A1B1850143001
:1004100028F00000A8E0A1950A1B1450123028F023
:100420000000A0E1A1950A1B1250113028F0000035
:10043000A0E2A1950A1B115018E018B9102F107CEA
:100440001BB9102F1F7315B90E94CD0300001C812A
:1004500000E0103828F00000A0E4A1950A1B105815
:10046000103428F00000A0E8A1950A1B10541032A7
:1004700028F00000A1E0A1950A1B1052103128F0CD
:100480000000A2E0A1950A1B1051183028F00000CE
:10049000A4E0A1950A1B1850143028F00000A8E031
:1004A000A1950A1B1450123028F00000A0E1A1957C
:1004B0000A1B1250113028F00000A0E2A1950A1B7F
:1004C000115018B8102F107C14601BB9102F1F7317
:1004D00015B90E94CD03000038B91BB815B81D81AD
:1004E00000E0103828F00000A0E4A1950A1B105885
:1004F000103428F00000A0E8A1950A1B1054103217
:1005000028F00000A1E0A1950A1B1052103128F03C
:100510000000A2E0A1950A1B1051183028F000003D
:10052000A4E0A1950A1B1850143028F00000A8E0A0
:10053000A1950A1B1450123028F00000A0E1A195EB
:100540000A1B1250113028F00000A0E2A1950A1BEE
:100550001150102F107C18601BB9102F1F7315B984
:100560000E94CD03000038B91BB815B81E8100E009
:10057000103828F00000A0E4A1950A1B1058103490
:1005800028F00000A0E8A1950A1B1054103228F0B2
:100590000000A1E0A1950A1B1052103128F00000C4
:1005A000A2E0A1950A1B1051183028F00000A4E029
:1005B000A1950A1B1850143028F00000A8E0A1955E
:1005C0000A1B1450123028F00000A0E1A1950A1B6C
:1005D0001250113028F00000A0E2A1950A1B115022
:1005E000102F107C10611BB9102F1F7315B90E94BA
:1005F000CD03000038B91BB815B81F8100E01038D2
:1006000028F00000A0E4A1950A1B1058103428F02F
:100610000000A0E8A1950A1B1054103228F0000039
:10062000A1E0A1950A1B1052103128F00000A2E0B1
:10063000A1950A1B1051183028F00000A4E0A195E4
:100640000A1B1850143028F00000A8E0A1950A1BDE
:100650001450123028F00000A0E1A1950A1B12509E
:10066000113028F00000A0E2A1950A1B1150102FB4
:10067000107C10621BB9102F1F7315B90E94CD0397
:10068000000038B91BB815B80C945A00000015E0EA
:1006900020917C00287F212B20937C0010E4209166
:1006A0007A00212B20937A0020917A0026FD0C9469
:1006B00054030000309179000C945F03000014E0B3
:1006C00020917C00287F212B20937C0010E4209136
:1006D0007A00212B20937A0020917A0026FD0C9439
:1006E0006C030000409179000C94770300003436CD
:1006F000A8F400003530B0F000004A3538F40000AE
:10070000413040F000000C94C203000098E00C94CB
:100710009603000094E00C949603000092E00C9481
:100720009603000091E00C94960300009F8390FDD7
:100730000C94AA03000091FD0C94B003000092FDFC
:100740000C94BC03000093FD0C94B60300000C94C1
:10075000C20300001081105F10830C94C2030000DC
:100760001081105110830C94C203000010811150AD
:1007700010830C94C203000010811F5F10830C943F
:10078000C20300000895188219821A821B821C82FB
:100790001D821E821F82089500003DE04CEF4A95A5
:1007A000F1F73A95E1F70895000051E0189500003F
:00000001FF
