:020000020000FC
:060000000C942300000037
:100040000C94020400000FE107B90CEF0AB90FE3AA
:1000500004B9F1E0E0E0D1E0C0E181E070E060E00F
:1000600091E012E41083188219821A821B821C828A
:100070001D821E821F8210E610937C0017E81093E9
:100080007A0018E01EBF1FEF1DBF78941091250065
:1000900016601093450011E020916E00122B109312
:1000A0006E0010E020E030E040E000E050E060E072
:1000B0000C94020100000E94610000000C945100A9
:1000C0000000513051F40E94F00300000E944003F0
:1000D00000000E946F00000050E0089500008617A5
:1000E00021F100001191212F207F2695269526953C
:1000F00026952030E9F000002130F1F00000223098
:10010000F9F00000233001F10000243009F1000073
:10011000253011F10000263019F10000273021F1BF
:1001200000006F5F0C946F000000E0E00895000095
:1001300031E00C94B800000032E00C94B8000000EC
:1001400034E00C94B800000038E00C94B8000000D3
:1001500030E10C94B800000030E20C94B8000000CC
:1001600030E40C94B800000030E80C94B8000000B3
:10017000412F4F704030B1F000004130C9F0000015
:100180004230E1F000004330F9F00000443011F15A
:100190000000453029F10000463041F100004730B1
:1001A00059F100004881342B38830C9491000000F1
:1001B0004981342B39830C94910000004A81342BFF
:1001C0003A830C94910000004B81342B3B830C94B8
:1001D000910000004C81342B3C830C949100000072
:1001E0004D81342B3D830C94910000004E81342BC3
:1001F0003E830C94910000004F81342B3F830C947C
:1002000091000000188100E0103828F00000A0E400
:10021000A1950A1B1058103428F00000A0E8A19501
:100220000A1B1054103228F00000A1E0A1950A1B0F
:100230001052103128F00000A2E0A1950A1B1051C5
:10024000183028F00000A4E0A1950A1B18501430C3
:1002500028F00000A8E0A1950A1B1450123028F0E5
:100260000000A0E1A1950A1B1250113028F00000F7
:10027000A0E2A1950A1B115011E018B9102F107CB3
:100280001BB9102F1F7315B90E94FA03000030E349
:1002900038B91BB815B8198100E0103828F00000F3
:1002A000A0E4A1950A1B1058103428F00000A0E823
:1002B000A1950A1B1054103228F00000A1E0A1956E
:1002C0000A1B1052103128F00000A2E0A1950A1B71
:1002D0001051183028F00000A4E0A1950A1B185016
:1002E000143028F00000A8E0A1950A1B1450123029
:1002F00028F00000A0E1A1950A1B1250113028F04F
:100300000000A0E2A1950A1B115012E018B9102FAD
:10031000107C1BB9102F1F7315B90E94FA0300003F
:1003200038B91BB815B81A8100E0103828F0000061
:10033000A0E4A1950A1B1058103428F00000A0E892
:10034000A1950A1B1054103228F00000A1E0A195DD
:100350000A1B1052103128F00000A2E0A1950A1BE0
:100360001051183028F00000A4E0A1950A1B185085
:10037000143028F00000A8E0A1950A1B1450123098
:1003800028F00000A0E1A1950A1B1250113028F0BE
:100390000000A0E2A1950A1B115014E018B9102F1B
:1003A000107C1BB9102F1F7315B90E94FA030000AF
:1003B00038B91BB815B81B8100E0103828F00000D0
:1003C000A0E4A1950A1B1058103428F00000A0E802
:1003D000A1950A1B1054103228F00000A1E0A1954D
:1003E0000A1B1052103128F00000A2E0A1950A1B50
:1003F0001051183028F00000A4E0A1950A1B1850F5
:10040000143028F00000A8E0A1950A1B1450123007
:1004100028F00000A0E1A1950A1B1250113028F02D
:100420000000A0E2A1950A1B115018E018B9102F86
:10043000107C1BB9102F1F7315B90E94FA0300001E
:100440001C8100E0103828F00000A0E4A1950A1BF0
:100450001058103428F00000A0E8A1950A1B105491
:10046000103228F00000A1E0A1950A1B10521031B3
:1004700028F00000A2E0A1950A1B1051183028F0C6
:100480000000A4E0A1950A1B1850143028F00000C9
:10049000A8E0A1950A1B1450123028F00000A0E13A
:1004A000A1950A1B1250113028F00000A0E2A1957E
:1004B0000A1B115018B8102F107C14601BB9102F94
:1004C0001F7315B90E94FA03000038B91BB815B89C
:1004D0001D8100E0103828F00000A0E4A1950A1B5F
:1004E0001058103428F00000A0E8A1950A1B105401
:1004F000103228F00000A1E0A1950A1B1052103123
:1005000028F00000A2E0A1950A1B1051183028F035
:100510000000A4E0A1950A1B1850143028F0000038
:10052000A8E0A1950A1B1450123028F00000A0E1A9
:10053000A1950A1B1250113028F00000A0E2A195ED
:100540000A1B1150102F107C18601BB9102F1F733D
:1005500015B90E94FA03000038B91BB815B81E81FE
:1005600000E0103828F00000A0E4A1950A1B105804
:10057000103428F00000A0E8A1950A1B1054103296
:1005800028F00000A1E0A1950A1B1052103128F0BC
:100590000000A2E0A1950A1B1051183028F00000BD
:1005A000A4E0A1950A1B1850143028F00000A8E020
:1005B000A1950A1B1450123028F00000A0E1A1956B
:1005C0000A1B1250113028F00000A0E2A1950A1B6E
:1005D0001150102F107C10611BB9102F1F7315B90B
:1005E0000E94FA03000038B91BB815B81F8100E05B
:1005F000103828F00000A0E4A1950A1B1058103410
:1006000028F00000A0E8A1950A1B1054103228F031
:100610000000A1E0A1950A1B1052103128F0000043
:10062000A2E0A1950A1B1051183028F00000A4E0A8
:10063000A1950A1B1850143028F00000A8E0A195DD
:100640000A1B1450123028F00000A0E1A1950A1BEB
:100650001250113028F00000A0E2A1950A1B1150A1
:10066000102F107C10621BB9102F1F7315B90E9438
:10067000FA03000038B91BB815B80C945B000000F1
:1006800015E020917C00287F212B20937C0010E432
:1006900020917A00212B20937A0020917A0026FD68
:1006A0000C944D030000309179000C945803000025
:1006B00014E020917C00287F212B20937C0010E403
:1006C00020917A00212B20937A0020917A0026FD38
:1006D0000C9465030000409179000C9470030000B5
:1006E0003C3810F500003530C0F00000483238F4D6
:1006F0000000413058F000000C949B03000094303F
:10070000D1F0000098E00C949E030000983099F01E
:10071000000094E00C949E030000913061F0000012
:1007200092E00C949E030000923029F0000091E0CA
:100730000C949E03000010927900089590FD0C9493
:10074000B103000091FD0C94BF03000092FD0C94D6
:10075000DF03000093FD0C94CD0300000C949B0379
:1007600000001081103730F40000105F10830C94EB
:100770009B0300001F7010830C949B0300001081EA
:10078000103130F00000105110830C949B030000D6
:10079000106710830C949B0300001081212F2F7091
:1007A000203031F00000115010830C949B030000A6
:1007B00027E01077122B10830C949B03000010810C
:1007C000212F2F70273031F000001F5F10830C9411
:1007D0009B0300001077112910830C949B030000E9
:1007E000188219821A821B821C821D821E821F821D
:1007F000089500003DE04CEF4A95F1F73A95E1F796
:0A0800000895000051E01895000073
:00000001FF
