:020000020000FC
:060000000C942300000037
:100040000C948B0400000FE107B90CEF0AB90FE321
:1000500004B9F1E0E0E0D1E0C0E484E0782F7395EA
:1000600060E091E014E4108314E3118314E212833E
:1000700014E113830E9460040000188219821A821E
:100080001B821C821D821E821F8210E610937C0040
:1000900017E810937A0018E01EBF1FEF1DBF789479
:1000A0001091250016601093450011E020916E001C
:1000B000122B10936E0010E020E030E040E000E0F2
:1000C00050E060E00C943F0100000E946B000000D3
:1000D0000C945B000000513099F40E943104000040
:1000E0000E947D0300000E94430400000E949300D0
:1000F00000000E94820000000E94AC00000050E05E
:100100000895000011918F938A95861739F0108118
:100110003193312F63950C948500000060E08F913E
:10012000E0E008950000119162E0861789F02191C6
:10013000121741F000000C949E00000063950C948F
:10014000950000000E94310400000C94A200000001
:1001500060E0E0E008950000761721F100001191C1
:10016000212F207F26952695269526952030E9F08B
:1001700000002130F1F000002230F9F000002330BF
:1001800001F10000243009F10000253011F10000D8
:10019000263019F10000273021F100006F5F0C9428
:1001A000AC000000E0E00895000031E00C94F500A0
:1001B000000032E00C94F500000034E00C94F500EF
:1001C000000038E00C94F500000030E10C94F500DC
:1001D000000030E20C94F500000030E40C94F500CF
:1001E000000030E80C94F5000000412F4F704030C3
:1001F000B1F000004130C9F000004230E1F00000F1
:100200004330F9F00000443011F10000453029F18D
:100210000000463041F10000473059F100004881AC
:10022000342B38830C94CE0000004981342B398361
:100230000C94CE0000004A81342B3A830C94CE00FB
:1002400000004B81342B3B830C94CE0000004C818A
:10025000342B3C830C94CE0000004D81342B3D8325
:100260000C94CE0000004E81342B3E830C94CE00C3
:1002700000004F81342B3F830C94CE000000188186
:1002800000E0103828F0000020E42195021B1058EF
:10029000103428F0000020E82195021B1054103281
:1002A00028F0000021E02195021B1052103128F0A7
:1002B000000022E02195021B1051183028F00000A8
:1002C00024E02195021B1850143028F0000028E08B
:1002D0002195021B1450123028F0000020E12195D6
:1002E000021B1250113028F0000020E22195021B61
:1002F000115011E018B9102F107C1BB9102F1F736B
:1003000015B90E943B04000030E338B91BB815B89A
:10031000198100E0103828F0000020E42195021B2C
:100320001058103428F0000020E82195021B1054CA
:10033000103228F0000021E02195021B10521031EC
:1003400028F0000022E02195021B1051183028F0FF
:10035000000024E02195021B1850143028F0000002
:1003600028E02195021B1450123028F0000020E1F3
:100370002195021B1250113028F0000020E2219537
:10038000021B115012E018B9102F107C1BB9102F4E
:100390001F7315B90E943B04000038B91BB815B88B
:1003A0001A8100E0103828F0000020E42195021B9B
:1003B0001058103428F0000020E82195021B10543A
:1003C000103228F0000021E02195021B105210315C
:1003D00028F0000022E02195021B1051183028F06F
:1003E000000024E02195021B1850143028F0000072
:1003F00028E02195021B1450123028F0000020E163
:100400002195021B1250113028F0000020E22195A6
:10041000021B115014E018B9102F107C1BB9102FBB
:100420001F7315B90E943B04000038B91BB815B8FA
:100430001B8100E0103828F0000020E42195021B09
:100440001058103428F0000020E82195021B1054A9
:10045000103228F0000021E02195021B10521031CB
:1004600028F0000022E02195021B1051183028F0DE
:10047000000024E02195021B1850143028F00000E1
:1004800028E02195021B1450123028F0000020E1D2
:100490002195021B1250113028F0000020E2219516
:1004A000021B115018E018B9102F107C1BB9102F27
:1004B0001F7315B90E943B0400001C8100E0103836
:1004C00028F0000020E42195021B1058103428F079
:1004D000000020E82195021B1054103228F0000083
:1004E00021E02195021B1052103128F0000022E07B
:1004F0002195021B1051183028F0000024E02195AE
:10050000021B1850143028F0000028E02195021B2F
:100510001450123028F0000020E12195021B1250E7
:10052000113028F0000020E22195021B115018B86C
:10053000102F107C14601BB9102F1F7315B90E9467
:100540003B04000038B91BB815B81D8100E0103815
:1005500028F0000020E42195021B1058103428F0E8
:10056000000020E82195021B1054103228F00000F2
:1005700021E02195021B1052103128F0000022E0EA
:100580002195021B1051183028F0000024E021951D
:10059000021B1850143028F0000028E02195021B9F
:1005A0001450123028F0000020E12195021B125057
:1005B000113028F0000020E22195021B1150102F6D
:1005C000107C18601BB9102F1F7315B90E943B04D3
:1005D000000038B91BB815B81E8100E0103828F0AB
:1005E000000020E42195021B1058103428F0000070
:1005F00020E82195021B1054103228F0000021E061
:100600002195021B1052103128F0000022E02195A4
:10061000021B1051183028F0000024E02195021B25
:100620001850143028F0000028E02195021B1450C7
:10063000123028F0000020E12195021B12501130E9
:1006400028F0000020E22195021B1150102F107C91
:1006500010611BB9102F1F7315B90E943B040000D5
:1006600038B91BB815B81F8100E0103828F0000019
:1006700020E42195021B1058103428F0000020E8D7
:100680002195021B1054103228F0000021E0219522
:10069000021B1052103128F0000022E02195021BAD
:1006A0001051183028F0000024E02195021B18504A
:1006B000143028F0000028E02195021B145012305D
:1006C00028F0000020E12195021B1250113028F083
:1006D000000020E22195021B1150102F107C1062A7
:1006E0001BB9102F1F7315B90E943B04000038B9C5
:1006F0001BB815B80C946500000015E020917C0033
:10070000287F212B20937C0010E420917A00212B5C
:1007100020937A0020917A0026FD0C948A03000031
:1007200030917900A30F0C949603000014E02091FF
:100730007C00287F212B20937C0010E420917A00FC
:10074000212B20937A0020917A0026FD0C94A3039C
:10075000000040917900A40F0C94DB03000092305C
:10076000D9F0000091E00C941E0400001081312F9C
:10077000103130F00000105110830C941D04000063
:10078000106710830C941D040000913079F3000071
:1007900092E00C941E0400001081312F103730F4C9
:1007A0000000105F10830C941D0400001F70108364
:1007B0000C941D0400003C3890F60000353028F3FE
:1007C0000000483238F400004130F0F000000C9492
:1007D0001D0400009430F9F0000098E00C941E0411
:1007E00000001081312F212F2F70203031F00000B8
:1007F000115010830C941D04000027E01077122B79
:1008000010830C941D040000983059F3000094E00C
:100810000C941E0400001081312F212F2F702730DF
:1008200031F000001F5F10830C941D04000010774E
:10083000112910830C941D040000089590FD0C9460
:10084000CC03000091FD0C94B603000092FD0C94C3
:100850000B04000093FD0C94F10300000C941D04A4
:100860000000188219821A821B821C821D821E823D
:100870001F82089500003DE04CEF4A95F1F73A954C
:10088000E1F7089500001081761741F400002291ED
:10089000121749F000000C945C040000219163954C
:1008A0000C944404000083950E948E04000060E0D4
:1008B000E0E00C946004000060E0E0E008950000D7
:1008C0001A2F17772191121741F00000861779F03F
:1008D000000063950C946204000020917900120FCF
:1008E0001095177760E0E0E00C946204000060E08F
:1008F000E0E00C947C040000761721F410830C9443
:1009000087040000219163950C947C040000E0E0D2
:1009100060E00895000051E018950000782F73956D
:10092000089500000E94310400000C94920400001D
:00000001FF
