:020000020000FC
:100000000C94030000000FEF07B90FEF0AB90FEFD0
:1000100004B920EF3FEF4FEF5CEF6FEF7FEF8FEF13
:100020009FEF122F00E0103820F0A0E4A1950A1BEA
:100030001058103420F0A0E8A1950A1B105410327B
:1000400020F0A1E0A1950A1B1052103120F0A2E08F
:10005000A1950A1B1051183020F0A4E0A1950A1BAD
:100060001850143020F0A8E0A1950A1B145012304B
:1000700020F0A0E1A1950A1B1250113020F0A0E25F
:10008000A1950A1B115011E018B9102F107C1BB953
:10009000102F1F7315B90E94F101132F00E01038C3
:1000A00020F0A0E4A1950A1B1058103420F0A0E81D
:1000B000A1950A1B1054103220F0A1E0A1950A1B53
:1000C0001052103120F0A2E0A1950A1B10511830F7
:1000D00020F0A4E0A1950A1B1850143020F0A8E0ED
:1000E000A1950A1B1450123020F0A0E1A1950A1B23
:1000F0001250113020F0A0E2A1950A1B115012E01D
:1001000018B9102F107C1BB9102F1F7315B90E943E
:10011000F101142F00E0103820F0A0E4A1950A1B93
:100120001058103420F0A0E8A1950A1B105410328A
:1001300020F0A1E0A1950A1B1052103120F0A2E09E
:10014000A1950A1B1051183020F0A4E0A1950A1BBC
:100150001850143020F0A8E0A1950A1B145012305A
:1001600020F0A0E1A1950A1B1250113020F0A0E26E
:10017000A1950A1B115014E018B9102F107C1BB95F
:10018000102F1F7315B90E94F101152F00E01038D0
:1001900020F0A0E4A1950A1B1058103420F0A0E82C
:1001A000A1950A1B1054103220F0A1E0A1950A1B62
:1001B0001052103120F0A2E0A1950A1B1051183006
:1001C00020F0A4E0A1950A1B1850143020F0A8E0FC
:1001D000A1950A1B1450123020F0A0E1A1950A1B32
:1001E0001250113020F0A0E2A1950A1B115018E026
:1001F00018B9102F107C1BB9102F1F7315B90E944E
:10020000F101162F00E0103820F0A0E4A1950A1BA0
:100210001058103420F0A0E8A1950A1B1054103299
:1002200020F0A1E0A1950A1B1052103120F0A2E0AD
:10023000A1950A1B1051183020F0A4E0A1950A1BCB
:100240001850143020F0A8E0A1950A1B1450123069
:1002500020F0A0E1A1950A1B1250113020F0A0E27D
:10026000A1950A1B115018B8102F107C14601BB9EF
:10027000102F1F7315B90E94F101172F00E01038DD
:1002800020F0A0E4A1950A1B1058103420F0A0E83B
:10029000A1950A1B1054103220F0A1E0A1950A1B71
:1002A0001052103120F0A2E0A1950A1B1051183015
:1002B00020F0A4E0A1950A1B1850143020F0A8E00B
:1002C000A1950A1B1450123020F0A0E1A1950A1B41
:1002D0001250113020F0A0E2A1950A1B1150102FEE
:1002E000107C18601BB9102F1F7315B90E94F10103
:1002F000182F00E0103820F0A0E4A1950A1B105838
:10030000103420F0A0E8A1950A1B1054103220F000
:10031000A1E0A1950A1B1052103120F0A2E0A19596
:100320000A1B1051183020F0A4E0A1950A1B1850A8
:10033000143020F0A8E0A1950A1B1450123020F0D0
:10034000A0E1A1950A1B1250113020F0A0E2A19566
:100350000A1B1150102F107C10611BB9102F1F7336
:1003600015B90E94F101192F00E0103820F0A0E427
:10037000A1950A1B1058103420F0A0E8A1950A1B83
:100380001054103220F0A1E0A1950A1B1052103138
:1003900020F0A2E0A1950A1B1051183020F0A4E033
:1003A000A1950A1B1850143020F0A8E0A1950A1B53
:1003B0001450123020F0A0E1A1950A1B1250113008
:1003C00020F0A0E2A1950A1B1150102F107C1062A2
:1003D0001BB9102F1F7315B90E94F10100000C9476
:1003E0000900BDE0CCEFCA95F1F7BA95E1F70895A1
:00000001FF
