:020000020000FC
:100000000C94030000000FEF07B90FEF0AB90FEFD0
:1000100004B9D1E0C0E020E0288320E0298320E07B
:100020002A8320E02B8320E12C8320E02D8320E015
:100030002E8320E02F8300E610917C00012B00939B
:100040007C0007E810917A00012B00937A00188158
:1000500000E0103820F0A0E4A1950A1B10581034DD
:1000600020F0A0E8A1950A1B1054103220F0A1E066
:10007000A1950A1B1052103120F0A2E0A1950A1B95
:100080001051183020F0A4E0A1950A1B185014302C
:1000900020F0A8E0A1950A1B1450123020F0A0E136
:1000A000A1950A1B1250113020F0A0E2A1950A1B65
:1000B000115011E018B9102F107C1BB9102F1F73AD
:1000C00015B90E942702198100E0103820F0A0E441
:1000D000A1950A1B1058103420F0A0E8A1950A1B26
:1000E0001054103220F0A1E0A1950A1B10521031DB
:1000F00020F0A2E0A1950A1B1051183020F0A4E0D6
:10010000A1950A1B1850143020F0A8E0A1950A1BF5
:100110001450123020F0A0E1A1950A1B12501130AA
:1001200020F0A0E2A1950A1B115012E018B9102F7F
:10013000107C1BB9102F1F7315B90E9427021A815A
:1001400000E0103820F0A0E4A1950A1B10581034EC
:1001500020F0A0E8A1950A1B1054103220F0A1E075
:10016000A1950A1B1052103120F0A2E0A1950A1BA4
:100170001051183020F0A4E0A1950A1B185014303B
:1001800020F0A8E0A1950A1B1450123020F0A0E145
:10019000A1950A1B1250113020F0A0E2A1950A1B74
:1001A000115014E018B9102F107C1BB9102F1F73B9
:1001B00015B90E9427021B8100E0103820F0A0E44E
:1001C000A1950A1B1058103420F0A0E8A1950A1B35
:1001D0001054103220F0A1E0A1950A1B10521031EA
:1001E00020F0A2E0A1950A1B1051183020F0A4E0E5
:1001F000A1950A1B1850143020F0A8E0A1950A1B05
:100200001450123020F0A0E1A1950A1B12501130B9
:1002100020F0A0E2A1950A1B115018E018B9102F88
:10022000107C1BB9102F1F7315B90E9427021C8167
:1002300000E0103820F0A0E4A1950A1B10581034FB
:1002400020F0A0E8A1950A1B1054103220F0A1E084
:10025000A1950A1B1052103120F0A2E0A1950A1BB3
:100260001051183020F0A4E0A1950A1B185014304A
:1002700020F0A8E0A1950A1B1450123020F0A0E154
:10028000A1950A1B1250113020F0A0E2A1950A1B83
:10029000115018B8102F107C14601BB9102F1F7349
:1002A00015B90E9427021D8100E0103820F0A0E45B
:1002B000A1950A1B1058103420F0A0E8A1950A1B44
:1002C0001054103220F0A1E0A1950A1B10521031F9
:1002D00020F0A2E0A1950A1B1051183020F0A4E0F4
:1002E000A1950A1B1850143020F0A8E0A1950A1B14
:1002F0001450123020F0A0E1A1950A1B12501130C9
:1003000020F0A0E2A1950A1B1150102F107C18605C
:100310001BB9102F1F7315B90E9427021E8100E020
:10032000103820F0A0E4A1950A1B1058103420F0DA
:10033000A0E8A1950A1B1054103220F0A1E0A1956D
:100340000A1B1052103120F0A2E0A1950A1B105197
:10035000183020F0A4E0A1950A1B1850143020F0AA
:10036000A8E0A1950A1B1450123020F0A0E1A1953D
:100370000A1B1250113020F0A0E2A1950A1B115067
:10038000102F107C10611BB9102F1F7315B90E941C
:1003900027021F8100E0103820F0A0E4A1950A1B7D
:1003A0001058103420F0A0E8A1950A1B1054103208
:1003B00020F0A1E0A1950A1B1052103120F0A2E01C
:1003C000A1950A1B1051183020F0A4E0A1950A1B3A
:1003D0001850143020F0A8E0A1950A1B14501230D8
:1003E00020F0A0E1A1950A1B1250113020F0A0E2EC
:1003F000A1950A1B1150102F107C10621BB9102FF1
:100400001F7315B90E94270224E620937C002091D7
:100410007A00206420937A0020917A0026FD0C94C3
:100420000C0280917800909179004FEF4C839A8371
:1004300089839F3744F4923014F00C9427005CE3D6
:100440005F830C94270058E158830C9427003FEFFA
:0C0450004CEF4A95F1F73A95E1F708955A
:00000001FF
