:020000020000FC
:100000000C94030000000FEF07B90FEF0AB90FEFD0
:1000100004B9D1E0C0E01AEA18831AE219831AEC95
:100020001A831AE41B8384E000E610917C00012B04
:1000300000937C0007E810917A00012B00937A006E
:1000400060E00E9425000C9430001881212F2F6061
:100050002030213024302830CF5F0C9425000895C3
:10006000188100E0103820F0A0E4A1950A1B105878
:10007000103420F0A0E8A1950A1B1054103220F093
:10008000A1E0A1950A1B1052103120F0A2E0A19529
:100090000A1B1051183020F0A4E0A1950A1B18503B
:1000A000143020F0A8E0A1950A1B1450123020F063
:1000B000A0E1A1950A1B1250113020F0A0E2A195F9
:1000C0000A1B115011E018B9102F107C1BB9102F0A
:1000D0001F7315B90E944D02198100E0103820F0FD
:1000E000A0E4A1950A1B1058103420F0A0E8A195B7
:1000F0000A1B1054103220F0A1E0A1950A1B1052E7
:10010000103120F0A2E0A1950A1B1051183020F008
:10011000A4E0A1950A1B1850143020F0A8E0A19586
:100120000A1B1450123020F0A0E1A1950A1B1250B6
:10013000113020F0A0E2A1950A1B115012E018B96D
:10014000102F107C1BB9102F1F7315B90E944D0280
:100150001A8100E0103820F0A0E4A1950A1B105885
:10016000103420F0A0E8A1950A1B1054103220F0A2
:10017000A1E0A1950A1B1052103120F0A2E0A19538
:100180000A1B1051183020F0A4E0A1950A1B18504A
:10019000143020F0A8E0A1950A1B1450123020F072
:1001A000A0E1A1950A1B1250113020F0A0E2A19508
:1001B0000A1B115014E018B9102F107C1BB9102F16
:1001C0001F7315B90E944D021B8100E0103820F00A
:1001D000A0E4A1950A1B1058103420F0A0E8A195C6
:1001E0000A1B1054103220F0A1E0A1950A1B1052F6
:1001F000103120F0A2E0A1950A1B1051183020F018
:10020000A4E0A1950A1B1850143020F0A8E0A19595
:100210000A1B1450123020F0A0E1A1950A1B1250C5
:10022000113020F0A0E2A1950A1B115018E018B976
:10023000102F107C1BB9102F1F7315B90E944D028F
:100240001C8100E0103820F0A0E4A1950A1B105892
:10025000103420F0A0E8A1950A1B1054103220F0B1
:10026000A1E0A1950A1B1052103120F0A2E0A19547
:100270000A1B1051183020F0A4E0A1950A1B185059
:10028000143020F0A8E0A1950A1B1450123020F081
:10029000A0E1A1950A1B1250113020F0A0E2A19517
:1002A0000A1B115018B8102F107C14601BB9102FA6
:1002B0001F7315B90E944D021D8100E0103820F017
:1002C000A0E4A1950A1B1058103420F0A0E8A195D5
:1002D0000A1B1054103220F0A1E0A1950A1B105205
:1002E000103120F0A2E0A1950A1B1051183020F027
:1002F000A4E0A1950A1B1850143020F0A8E0A195A5
:100300000A1B1450123020F0A0E1A1950A1B1250D4
:10031000113020F0A0E2A1950A1B1150102F107C83
:1003200018601BB9102F1F7315B90E944D021E8152
:1003300000E0103820F0A0E4A1950A1B10581034FA
:1003400020F0A0E8A1950A1B1054103220F0A1E083
:10035000A1950A1B1052103120F0A2E0A1950A1BB2
:100360001051183020F0A4E0A1950A1B1850143049
:1003700020F0A8E0A1950A1B1450123020F0A0E153
:10038000A1950A1B1250113020F0A0E2A1950A1B82
:100390001150102F107C10611BB9102F1F7315B94D
:1003A0000E944D021F8100E0103820F0A0E4A195CA
:1003B0000A1B1058103420F0A0E8A1950A1B105415
:1003C000103220F0A1E0A1950A1B1052103120F04C
:1003D000A2E0A1950A1B1051183020F0A4E0A195CD
:1003E0000A1B1850143020F0A8E0A1950A1B1450E5
:1003F000123020F0A0E1A1950A1B1250113020F01C
:10040000A0E2A1950A1B1150102F107C10621BB99D
:10041000102F1F7315B90E944D020C940F022091EA
:100420007C0035E0232B20937C0020917A0020640F
:1004300020937A0020917A0026FD0C941A023091C4
:1004400079003F83323318F5303020F120917C0061
:100450003EEF232334E0232B20937C0020917A006D
:10046000206420937A0020917A0026FD0C943302B8
:10047000309179003F83323320F4303028F00C94EF
:10048000200098E00C94540294E00C94540292E002
:100490000C94540291E00C9454023DE04CEF4A95C8
:1004A000F1F73A95E1F708952881211519F4CF5F06
:1004B0000C945402C0E090FD0E946A0291FD0E94DB
:1004C0006D0292FD0E94730293FD0E947002C0E0D3
:1004D0000C94200038E13883089538E13983089579
:1004E00038E13A83089538E13B83089518821982F0
:0E04F0001A821B821C821D821E821F820895AA
:00000001FF
