:020000020000FC
:100000000C94030000000FEF07B90FEF0AB90FEFD0
:1000100004B9D1E0C0E014E7188314E6198314E5AD
:100020001A8314E41B8384E000E610917C00012B0A
:1000300000937C0007E810917A00012B00937A006E
:1000400060E00E9425000C9465001881212F206F2C
:100050002695269526952695203099F02130A1F0F9
:100060002230A9F02330B1F02430B9F02530C1F0AE
:100070002630C9F02730D1F0CF5F0C942500C0E0C6
:10008000089531E00C94590032E00C94590034E0AA
:100090000C94590038E00C94590030E10C9459004C
:1000A00030E20C94590030E40C94590030E80C9480
:1000B0005900C0E0412F4F60CF5F4A95411514F0C1
:1000C0000C945C0038830C943F00188100E01038D9
:1000D00020F0A0E4A1950A1B1058103420F0A0E8ED
:1000E000A1950A1B1054103220F0A1E0A1950A1B23
:1000F0001052103120F0A2E0A1950A1B10511830C7
:1001000020F0A4E0A1950A1B1850143020F0A8E0BC
:10011000A1950A1B1450123020F0A0E1A1950A1BF2
:100120001250113020F0A0E2A1950A1B115011E0ED
:1001300018B9102F107C1BB9102F1F7315B90E940E
:100140004402198100E0103820F0A0E4A1950A1BB8
:100150001058103420F0A0E8A1950A1B105410325A
:1001600020F0A1E0A1950A1B1052103120F0A2E06E
:10017000A1950A1B1051183020F0A4E0A1950A1B8C
:100180001850143020F0A8E0A1950A1B145012302A
:1001900020F0A0E1A1950A1B1250113020F0A0E23E
:1001A000A1950A1B115012E018B9102F107C1BB931
:1001B000102F1F7315B90E9444021A8100E01038F5
:1001C00020F0A0E4A1950A1B1058103420F0A0E8FC
:1001D000A1950A1B1054103220F0A1E0A1950A1B32
:1001E0001052103120F0A2E0A1950A1B10511830D6
:1001F00020F0A4E0A1950A1B1850143020F0A8E0CC
:10020000A1950A1B1450123020F0A0E1A1950A1B01
:100210001250113020F0A0E2A1950A1B115014E0F9
:1002200018B9102F107C1BB9102F1F7315B90E941D
:1002300044021B8100E0103820F0A0E4A1950A1BC5
:100240001058103420F0A0E8A1950A1B1054103269
:1002500020F0A1E0A1950A1B1052103120F0A2E07D
:10026000A1950A1B1051183020F0A4E0A1950A1B9B
:100270001850143020F0A8E0A1950A1B1450123039
:1002800020F0A0E1A1950A1B1250113020F0A0E24D
:10029000A1950A1B115018E018B9102F107C1BB93A
:1002A000102F1F7315B90E9444021C8100E0103802
:1002B00020F0A0E4A1950A1B1058103420F0A0E80B
:1002C000A1950A1B1054103220F0A1E0A1950A1B41
:1002D0001052103120F0A2E0A1950A1B10511830E5
:1002E00020F0A4E0A1950A1B1850143020F0A8E0DB
:1002F000A1950A1B1450123020F0A0E1A1950A1B11
:100300001250113020F0A0E2A1950A1B115018B82C
:10031000102F107C14601BB9102F1F7315B90E9489
:1003200044021D8100E0103820F0A0E4A1950A1BD2
:100330001058103420F0A0E8A1950A1B1054103278
:1003400020F0A1E0A1950A1B1052103120F0A2E08C
:10035000A1950A1B1051183020F0A4E0A1950A1BAA
:100360001850143020F0A8E0A1950A1B1450123048
:1003700020F0A0E1A1950A1B1250113020F0A0E25C
:10038000A1950A1B1150102F107C18601BB9102F5B
:100390001F7315B90E9444021E8100E0103820F03E
:1003A000A0E4A1950A1B1058103420F0A0E8A195F4
:1003B0000A1B1054103220F0A1E0A1950A1B105224
:1003C000103120F0A2E0A1950A1B1051183020F046
:1003D000A4E0A1950A1B1850143020F0A8E0A195C4
:1003E0000A1B1450123020F0A0E1A1950A1B1250F4
:1003F000113020F0A0E2A1950A1B1150102F107CA3
:1004000010611BB9102F1F7315B90E9444021F8180
:1004100000E0103820F0A0E4A1950A1B1058103419
:1004200020F0A0E8A1950A1B1054103220F0A1E0A2
:10043000A1950A1B1052103120F0A2E0A1950A1BD1
:100440001051183020F0A4E0A1950A1B1850143068
:1004500020F0A8E0A1950A1B1450123020F0A0E172
:10046000A1950A1B1250113020F0A0E2A1950A1BA1
:100470001150102F107C10621BB9102F1F7315B96B
:100480000E9444020C9420003DE04CEF4A95F1F7A5
:060490003A95E1F7089522
:00000001FF
